:100000000C9458010C94FF010C94F9020C94EB0130
:100010000C9475010C9475010C9490010C9475016D
:100020000C9475010C94F5010C9475010C94B504B5
:100030000C9475010C9475010C9475010C94750168
:100040000C9475010C9475010C9475010C94750158
:100050000C9475015700570054696D65206C696DEB
:100060006974205B735D3A004C61706C696D6974F2
:10007000205B6C6170735D3A20004C6170636F753A
:100080006E746572207265616479202020200052B0
:100090006163652073746172742020202020202009
:1000A0002020200057004A0057004A00526573750F
:1000B0006D652020202020202020202020202020AE
:1000C00000526573756D652020202020202020209F
:1000D0002020202020005261636520636F756E74BC
:1000E000646F776E202020202020003220302030C6
:1000F000202020302E30302020302E3030202000A4
:100100003120302030202020302E30302020302E62
:100110003030202000542050204C2020206C61736F
:1001200074202062657374205300526163652070EF
:10013000726570617265202020202020202000211F
:10014000524553554D450A002150414E49430A003E
:100150002153484F52544355540A002152414345BC
:100160002053544152540A0021434F554E54444F9A
:10017000574E0A00215241434520505245504152AA
:10018000450A00425553590A004F4B0A0050616E10
:100190006963206D6F6465202020202020202020AE
:1001A000200046726565536C6F7420426C61636B0E
:1001B000626F7820760000407A10F35A00A0724EE9
:1001C00018090010A5D4E80000E87648170000E4FC
:1001D0000B54020000CA9A3B000000E1F505000044
:1001E00080969800000040420F000000A0860100A9
:1001F0000000102700000000E80300000000640079
:10020000000000000A0000000000010000000000E3
:100210002C76D888DC674F0823DFC1DFAE59E1B107
:10022000B796E5E3E453C63AE651997696E8E6C216
:100230008426EB898C9B62ED407C6FFCEFBC9C9F1D
:1002400040F2BAA56FA5F490055A2AF75C936B6C3F
:10025000F9676DC11BFCE0E40D47FEF520E6B50033
:10026000D0ED902E0300943577050080841E0800A1
:1002700000204E0A000000C80C333333330F986E51
:1002800012831141EF8D2114893BE65516CFFEE60E
:10029000DB18D1844B381BF77C1D901DA4BBE424D4
:1002A000203284725E228100C9F124ECA1E53D2751
:1002B00011241FBECFE5D4E0DEBFCDBF10E0A0E625
:1002C000B0E0E4E7F1E202C005900D92A439B10775
:1002D000D9F721E0A4E9B0E001C01D92AD30B2072A
:1002E000E1F70E94D50B0C94B8100C94000080919B
:1002F0009F008F3F39F08FEF80939F0088E491E05B
:100300000C94180710929F000E94D90A8FE391E085
:100310000E94180741EC50E061E081E00C948B08EA
:100320001F920F920FB60F9211248F939F93AF934A
:10033000BF9380919F008F3F09F444C08230E9F45D
:1003400080919800909199000196909399008093E4
:1003500098008091980090919900883C910568F0F0
:1003600080919600909197000196909397008093CA
:1003700096001092990010929800809194009091AC
:100380009500892B61F082B3805882BB80919400E4
:10039000909195000197909395008093940080919F
:1003A000D6009091D700A091D800B091D9000196C5
:1003B000A11DB11D8093D6009093D700A093D800C3
:1003C000B093D900BF91AF919F918F910F900FBEC5
:1003D0000F901F9018951F920F920FB60F92112435
:1003E0000F900FBE0F901F9018951F920F920FB68F
:1003F0000F9211240F900FBE0F901F9018951F920F
:100400000F920FB60F9211242F933F934F935F9348
:100410006F937F938F939F93AF93BF93EF93FF93CC
:100420008BB78F7B8BBF80919F00823059F58FEF08
:1004300080939F008091D6009091D7009093E60022
:100440008093E5008EE70E940A0781E30E940A0775
:100450008AE30E940A078091E5009091E60040E15E
:100460006EEA70E00E940B0E8EEA90E00E940E078A
:100470008AE00E940A074AEA50E064E183E00E94B1
:100480008B08A6C021E02093B9008091EB009091E9
:10049000EC00A091ED00B091EE00892B8A2B8B2B04
:1004A00009F486C08091D6009091D700A091D80021
:1004B000B091D9004091EB005091EC006091ED00BB
:1004C0007091EE00841B950BA60BB70B8093EF0089
:1004D0009093F000A093F100B093F2008091E900B6
:1004E0008F5F8093E9009091E9008091FF00891768
:1004F00028F42093EA0082E0809300018091F300C9
:100500009091F400A091F500B091F600892B8A2B10
:100510008B2BA9F04091EF005091F0006091F10019
:100520007091F2008091F3009091F400A091F50099
:10053000B091F600481759076A077B07B0F480911D
:10054000EF009091F000A091F100B091F200809343
:10055000F3009093F400A093F500B093F60088EEBA
:1005600093E090939500809394009091E90080919E
:1005700064009817E8F08091C10080FF19C065E021
:1005800083E00E942B088091E9004AE06EEA70E067
:1005900090E00E940B0E8EEA90E00E94100848EA5C
:1005A00050E064E183E00E948B088FEF80939F000E
:1005B0008091D6009091D700A091D800B091D90039
:1005C0008093EB009093EC00A093ED00B093EE00CD
:1005D000FF91EF91BF91AF919F918F917F916F911B
:1005E0005F914F913F912F910F900FBE0F901F90F1
:1005F00018951F920F920FB60F9211242F933F93CD
:100600004F935F936F937F938F939F93AF93BF931A
:10061000EF93FF938BB78F778BBF80919F008230D2
:1006200059F58FEF80939F008091D6009091D7006D
:100630009093FC008093FB008EE70E940A0782E300
:100640000E940A078AE30E940A078091FB009091AA
:10065000FC0040E16EEA70E00E940B0E8EEA90E032
:100660000E940E078AE00E940A0746EA50E064E111
:1006700084E00E948B08A6C021E02093C2008091F4
:10068000010190910201A0910301B0910401892B15
:100690008A2B8B2B09F486C08091D6009091D700CD
:1006A000A091D800B091D900409101015091020170
:1006B0006091030170910401841B950BA60BB70B8D
:1006C0008093050190930601A0930701B093080160
:1006D0008091FF008F5F8093FF009091FF008091D9
:1006E000E900891728F42093000182E08093EA0052
:1006F0008091090190910A01A0910B01B0910C0128
:10070000892B8A2B8B2BA9F0409105015091060172
:1007100060910701709108018091090190910A018F
:10072000A0910B01B0910C01481759076A077B078C
:10073000B0F48091050190910601A0910701B0915C
:1007400008018093090190930A01A0930B01B093D3
:100750000C0188EE93E09093950080939400909123
:10076000FF00809164009817E8F08091C10080FF3D
:1007700019C065E084E00E942B088091FF004AE0E8
:100780006EEA70E090E00E940B0E8EEA90E00E940C
:10079000100844EA50E064E184E00E948B088FEF87
:1007A00080939F008091D6009091D700A091D800AF
:1007B000B091D9008093010190930201A0930301AD
:1007C000B0930401FF91EF91BF91AF919F918F91F1
:1007D0007F916F915F914F913F912F910F900FBE3D
:1007E0000F901F9018951092E900E2EEF0E08081E2
:1007F000807F80831092EB001092EC001092ED004D
:100800001092EE001092EF001092F0001092F100A2
:100810001092F2001092F3001092F4001092F50082
:100820001092F6001092EA001092FF00E7EFF0E05D
:100830008181807F818310920101109202011092C8
:10084000030110920401109205011092060110920A
:100850000701109208011092090110920A011092EA
:100860000B0110920C01109200011092D600109210
:10087000D7001092D8001092D900089580919F005F
:10088000811141C081E080939F000E94F30361E0E9
:1008900081E00E94860A61E082E00E94860A61E0AF
:1008A00083E00E94860A61E084E00E94860A61E09B
:1008B00085E00E94860A84E791E00E9418074AE2D8
:1008C00051E061E081E00E948B0845E151E061E088
:1008D00082E00E948B0840E051E061E083E00E94EA
:1008E0008B084BEE50E061E084E00E948B08809121
:1008F000C100B09B03C08E7F826002C081608D7F8B
:100900008093C1000895813079F51092D60010923D
:10091000D7001092D8001092D90085E08093AD00E6
:100920008AE08093AC0082E080939F0060E081E0E9
:100930000E94860A60E082E00E94860A60E083E00E
:100940000E94860A60E084E00E94860A60E085E0FA
:100950000E94860A88E691E00E94180746ED50E062
:1009600061E081E00C948B0808951F920F920FB6FE
:100970000F9211242F933F934F935F936F937F9325
:100980008F939F93AF93BF93EF93FF933CB12091CD
:10099000A0002B3091F1822F90E03A3089F5FC01D4
:1009A000EF55FF4F10828091A100833219F08B32F6
:1009B00041F023C089E891E00E9418070E943E049C
:1009C0001CC089E891E00E94180780919F008F3F2A
:1009D00041F08FEF80939F0088E491E00E94180718
:1009E0000CC010929F008FE391E00E9418074CEA20
:1009F00050E061E081E00E948B081092A00007C0E7
:100A00002F5F2093A000FC01EF55FF4F3083FF9133
:100A1000EF91BF91AF919F918F917F916F915F9176
:100A20004F913F912F910F900FBE0F901F901895EF
:100A30008091AC00882311F0815006C08091AD00F8
:100A400081508093AD008AE08093AC008091AD002E
:100A50008230A9F028F48823C1F0813099F00895FC
:100A6000843031F048F0853019F561E081E002C052
:100A700061E082E00C94860A61E083E0FBCF61E0F4
:100A800084E0F8CF61E085E0F5CF1092D6001092B7
:100A9000D7001092D8001092D9000E94D90A83E0A2
:100AA00080939F004FE850E061E081E00C948B0858
:100AB00008950F931F93CF93DF938FE690E00E94EA
:100AC0000E0709EE10E0F801808140E16EEA70E067
:100AD00090E00E940B0E8EEA90E00E940E078AE3DF
:100AE0000E940A0781E30E940A078AE30E940A071C
:100AF000CFEED0E0688179818A819B8120E14EEA46
:100B000050E00E94160E8EEA90E00E940E078AE3E3
:100B10000E940A076091D6007091D7008091D8009A
:100B20009091D90020E14EEA50E00E94160E8EEA24
:100B300090E00E940E078AE00E940A0763E083E0CB
:100B40000E942B088091EA004AE06EEA70E090E093
:100B50000E940B0E8EEA90E00E94100863E084E091
:100B60000E942B08809100014AE06EEA70E090E05C
:100B70000E940B0E8EEA90E00E94100865E083E070
:100B80000E942B08F80180814AE06EEA70E090E054
:100B90000E940B0E8EEA90E00E94100868E083E04D
:100BA0000E942B08688179818A819B810E94530D64
:100BB00020E030E04AEF54E40E94EB0C0EEA10E033
:100BC00022E045E00E94E10DC8010E9410086DE09E
:100BD00083E00E942B0885E790E00E9410086EE0F9
:100BE00083E00E942B086091F3007091F4008091E3
:100BF000F5009091F6000E94530D20E030E04AEF9E
:100C000054E40E94EB0C22E045E00E94E10DC80193
:100C10000E94100863E183E00E942B0884E790E0C3
:100C2000DF91CF911F910F910C9410080F931F9398
:100C3000CF93DF9387E790E00E940E070FEF10E05D
:100C4000F801808140E16EEA70E090E00E940B0EB6
:100C50008EEA90E00E940E078AE30E940A0782E370
:100C60000E940A078AE30E940A07C5E0D1E0688172
:100C700079818A819B8120E14EEA50E00E94160E24
:100C80008EEA90E00E940E078AE30E940A076091B4
:100C9000D6007091D7008091D8009091D90020E1C2
:100CA0004EEA50E00E94160E8EEA90E00E940E0777
:100CB0008AE00E940A0763E083E00E942B0880918B
:100CC000EA004AE06EEA70E090E00E940B0E8EEAC5
:100CD00090E00E94100863E084E00E942B0880915D
:100CE00000014AE06EEA70E090E00E940B0E8EEA8E
:100CF00090E00E94100865E084E00E942B08F80153
:100D000080814AE06EEA70E090E00E940B0E8EEA6D
:100D100090E00E94100868E084E00E942B0868813F
:100D200079818A819B810E94530D20E030E04AEF57
:100D300054E40E94EB0C0EEA10E022E045E00E9431
:100D4000E10DC8010E9410086DE084E00E942B08AC
:100D500085E790E00E9410086EE084E00E942B0876
:100D60006091090170910A0180910B0190910C0131
:100D70000E94530D20E030E04AEF54E40E94EB0C57
:100D800022E045E00E94E10DC8010E94100863E1E5
:100D900084E00E942B0884E790E0DF91CF911F91BF
:100DA0000F910C9410088091D6009091D700A091DB
:100DB000D800B091D9004091EB005091EC006091C7
:100DC000ED007091EE0084529A4FAF4FBF4F48171D
:100DD00059076A077B0718F42BB720642BBF409193
:100DE00001015091020160910301709104014817C3
:100DF00059076A077B0718F48BB780688BBF089583
:100E000010BC80E189B9599A88E98AB986E880BD21
:100E1000789408955D9BFECF8CB90895FC012191D3
:100E2000CF01222321F05D9BFECF2CB9F7CF08958F
:100E3000FC012491222329F05D9BFECF2CB9019661
:100E4000F7CF089590EC90936900805487B9369A53
:100E50003699FECF84B195B1089586B1876886B979
:100E60000895CF93DF93EC016CE770E00E94020ECF
:100E7000892B11F480E408C060E870E0CE010E9484
:100E8000020E892B21F480E88093690012C065E886
:100E900070E0CE010E94020E892B11F480ECF4CF99
:100EA0006BE870E0CE010E94020E892B61F4109273
:100EB00069008091690087B9369A3699FECF84B16E
:100EC00095B181E001C080E0DF91CF910895CF928C
:100ED000DF92FF920F931F93CF93DF931F92CDB7B3
:100EE000DEB7F12CC12CD12C082F10E0F61649F0FA
:100EF000C80169830E942207C80ED91EF394698134
:100F0000F5CF6F2D70E0C6010E94D70CCB010F907A
:100F1000DF91CF911F910F91FF90DF90CF900895B7
:100F2000CF9380FD02C0C0E001C0C0E181FDC0627E
:100F300082FDC06483FDC06884FDC16085FDC26020
:100F40008091B6008111C8608EE40E943B0A8C2F0C
:100F50000E94610A8C2F84600E94610A8C2F0E947B
:100F6000610ACF910C945B0ACF93DF93882311F031
:100F7000C3EF01C0C2EF8091B6008111C8608EE45A
:100F80000E943B0A8C2F0E94610A8C2F84600E9471
:100F9000610A0E945B0A8FE40E943B0A0E94750A64
:100FA000D82F0E945B0A8EE40E943B0A8C2F0E947D
:100FB000610A0E945B0AD4FB882780F9D5FD826014
:100FC000D6FD8460D7FD8860DF91CF910895CF93DF
:100FD000DF93C82F0E94B407D82F8C2F0E94B4072C
:100FE0008F7090E1D99F800D1124DF91CF910895EA
:100FF000CF93C82F82958F700E9490078C2F8F708F
:10100000CF910C949007CF93C82F82958F708061F9
:101010000E9490078C2F8F708061CF910C94900765
:10102000CF93DF93EC018991882319F00E94030884
:10103000FACFDF91CF910895CF93DF93FC01849194
:10104000EF012196882321F00E940308FE01F7CFCB
:10105000DF91CF9108959FEF980F943098F46150ED
:10106000643180F48250833030F4E82FF0E0E459AA
:10107000FF4F808101C080E08068860F0E94F807E2
:1010800081E0089580E008951F93CF93DF931F922E
:10109000CDB7DEB749830E942B08182F49818823DA
:1010A00019F0842F0E940308812F0F90DF91CF91B8
:1010B0001F910895CF92DF92FF920F931F93CF93CA
:1010C000DF9300D0CDB7DEB7F82E162F49835A83B1
:1010D0000E942B08082F49815A81882389F06A01D0
:1010E000F60181916F01882359F00E9403081F5F68
:1010F0001531B0F361E08F2D0E942B0811E0F0CF85
:10110000802F0F900F90DF91CF911F910F91FF9043
:10111000DF90CF900895CF92DF92FF920F931F93AD
:10112000CF93DF9300D0CDB7DEB7F82E162F4983CB
:101130005A830E942B08082F49815A81882399F0ED
:101140006A01F6018491882371F00E9403081F5FF1
:10115000153128F061E08F2D0E942B0811E08FEFF0
:10116000C81AD80AEECF802F0F900F90DF91CF9141
:101170001F910F91FF90DF90CF900895CF92DF9253
:10118000FF920F931F93CF93DF9300D0CDB7DEB7BD
:10119000182F062F49835A830E942B08F82E498165
:1011A0005A818823A9F06A01F60181916F01882391
:1011B00079F00E9403080F5F0531B0F31F5F15300F
:1011C00008F011E061E0812F0E942B0801E0ECCFD4
:1011D0008F2D0F900F90DF91CF911F910F91FF9066
:1011E000DF90CF900895CF92DF92FF920F931F93DD
:1011F000CF93DF9300D0CDB7DEB7182F062F4983EA
:101200005A830E942B08F82E49815A818823B9F00D
:101210006A01F6018491882391F00E9403080F5F10
:10122000053148F01F5F153008F011E061E0812FB3
:101230000E942B0801E08FEFC81AD80AEACF8F2D41
:101240000F900F90DF91CF911F910F91FF90DF9042
:10125000CF9008950F931F93CF93DF93EC018B01F1
:1012600080E00E94E70787FD21C0843120F491E0EF
:1012700098838F5F17C090EC980F943120F492E020
:1012800098838F530FC09CEE980F943120F493E015
:101290009883835107C09CEA980F943138F494E006
:1012A00098838355F801808381E001C080E0DF915D
:1012B000CF911F910F910895CF93DF9300D0CDB7B9
:1012C000DEB7BE016F5F7F4FCE0102960E942A09F2
:1012D0008A8161E08F5F0E942B080F900F90DF9151
:1012E000CF910895CF93882329F081E08093B600B1
:1012F000C8E003C01092B600C0E08EE40E943B0A32
:101300008C2F0E94610ACF910C945B0A80E00E94AE
:1013100072098FE295E70197F1F700C0000083E0C2
:101320000E9490078FE097E20197F1F700C000005C
:1013300083E00E9490078FEC97E00197F1F700C0DF
:10134000000083E00E94900782E00E9490079FE7E0
:1013500028E381E0915020408040E1F700C0000088
:1013600088E20E94F8079FE728E381E0915020403F
:101370008040E1F700C000008EE00E94F8079FE780
:1013800028E381E0915020408040E1F700C0000058
:1013900086E00E94F8079FE728E381E09150204013
:1013A0008040E1F700C0000081E00E94F8079FE75D
:1013B00028E381E0915020408040E1F700C0000028
:1013C000089580E00E94E707881F8827881F0895F6
:1013D000EF92FF920F931F93CF93DF9300D0CDB77F
:1013E000DEB78C01F62EBE016F5F7F4FCE010296F5
:1013F0000E942A098F2D8770880F880F880F805CC4
:101400000E94F807780188E0E80EF11CF801849149
:101410000E9403080F5F1F4F0E151F05B9F7698162
:101420008A810E942B080F900F90DF91CF911F911E
:101430000F91FF90EF90089511B882E080B9089560
:1014400094EA96BF06B607FEFDCF91B1987F98301B
:1014500021F0903111F081E0089583B984E886BFCE
:1014600006B607FEFDCF81B1887F883111F0803448
:1014700091F780E0089524EA34E844E926BF06B6EF
:1014800007FEFDCF91B1987F983011F09031B1F700
:1014900083B936BF06B607FEFDCF91B1987F903273
:1014A00011F0983529F446BF06B604FCFDCFE6CF0F
:1014B00008950C94200A84E986BF06B604FCFDCF8B
:1014C000089583B984E886BF06B607FEFDCF91B1C3
:1014D000987F81E0983209F480E0089584EC86BF1B
:1014E00006B607FEFDCF83B1089584E886BF06B631
:1014F00007FEFDCF83B108952FE788E391E02150E7
:1015000080409040E1F700C000000895833039F139
:1015100028F4813041F0823099F00895843061F1EF
:101520008530C1F10895613031F018F0623029F052
:101530000895DC980895DC9A08958BB390E10CC06F
:10154000613031F018F0623029F00895DD98089587
:10155000DD9A08958BB390E289278BBB08956130A3
:1015600031F018F0623029F00895AF980895AF9ADD
:10157000089585B380581BC0613031F018F0623097
:1015800029F00895AA980895AA9A089595B39827DE
:1015900095BB0895613031F018F0623029F008955C
:1015A000AB980895AB9A089585B398E0892785BBD9
:1015B0000895DC98DD98AF98AA98AB9808951ABA68
:1015C0001BBA17BA18BA14BA15BA11BA12BA0E94CD
:1015D00000070E942D0710BE0E941C0A0E94860967
:1015E0008CE00E94F80781E00E947209D49AD59A93
:1015F000A79AA29AA39A8F9AC09AC19A92989398FE
:1016000084B3836084BBDC9A2FE788E391E02150A8
:1016100080409040E1F700C00000DD9A2FE788E3AA
:1016200091E0215080409040E1F700C00000AF9A67
:101630002FE788E391E0215080409040E1F700C01F
:101640000000AA9A2FE788E391E021508040904063
:10165000E1F700C00000AB9A2FE788E391E021504A
:1016600080409040E1F700C00000DC982FE788E35D
:1016700091E0215080409040E1F700C00000DD98EB
:101680002FE788E391E0215080409040E1F700C0CF
:101690000000AF982FE788E391E021508040904010
:1016A000E1F700C00000AA982FE788E391E02150FD
:1016B00080409040E1F700C00000AB988FE085BF0C
:1016C00080EC8BBF8AE08EBD86EF91E09BBD8ABD2A
:1016D00089B7806189BF82EA91E00E9418078FE88C
:1016E00090E00E940E078AE00C940A074DE851E052
:1016F00061E081E00E948B080E94D90A8BB390E1DF
:1017000089278BBB2FE788E391E0215080409040F0
:10171000E1F700C000008BB390E189278BBB8BB34E
:1017200090E289278BBB2FE788E391E0215080402E
:101730009040E1F700C000008BB390E289278BBB9B
:1017400085B3805885BB2FE788E391E02150804026
:101750009040E1F700C0000085B3805885BB85B399
:1017600094E0892785BB2FE788E391E021508040F2
:101770009040E1F700C0000085B394E0892785BB65
:1017800085B398E0892785BB83B3807480936B0011
:1017900090916A00981741F0811102C00E94770170
:1017A00080916B0080936A00089581E08093C0006F
:1017B0008091C1008E7F8D7F8093C1000E94DF0ADF
:1017C0000E94F30361E083E00E94860A81E00E94A8
:1017D000F8078FE99FE00197F1F700C000004AE7A2
:1017E00050E061E081E00E948B0848E650E061E053
:1017F00083E00E948B08809164004AE06EEA70E00A
:1018000090E00E940B0E8EEA90E00E94100848E5DE
:1018100050E061E084E00E948B086091600070916C
:10182000610080916200909163000E94530D20E05E
:1018300030E04AEF54E40E94EB0C0EEA10E020E0A6
:1018400043E00E94E10DC8010E941008CFEF4091D3
:10185000D6005091D7006091D8007091D900809146
:10186000600090916100A0916200B0916300481700
:1018700059076A077B07D0F08091C10081FF16C02D
:101880008091EA00813029F446E550E064E183E08C
:1018900004C044E550E064E184E00E948B0880913C
:1018A000C1008D7F8093C100C0939F000E94D3062A
:1018B00080919F008F3F19F40E94760BF9CF811120
:1018C00017C08091EA00813039F461E00E94860AF5
:1018D00060E085E00E94860A80910001813041F439
:1018E00061E085E00E94860A60E081E00E94860A4D
:1018F0008091C800882359F08091B7009091B8007A
:1019000042E06EEA70E00E940B0E1092C80086B3AF
:1019100082708093680090916700981741F0811160
:1019200002C00E943E04809168008093670083B3E8
:1019300080748093660090916500981741F0811142
:1019400002C00E94770180916600809365008091BB
:101950009F00833051F410929F008BE591E00E942C
:10196000180795E89A95F1F70000809196009091FC
:101970009700892B51F080919F00823031F41092B2
:101980009700109296000E9418058091B90081304E
:1019900021F40E9459051092B9008091C200813053
:1019A00009F055CF0E9416061092C20050CFAA1B14
:1019B000BB1B51E107C0AA1FBB1FA617B70710F03A
:1019C000A61BB70B881F991F5A95A9F7809590956C
:1019D000BC01CD0108950CD0BAC0B2D040F0A9D05E
:1019E00030F021F45F3F19F09BC05111E4C09EC05C
:1019F000BFD098F39923C9F35523B1F3951B550B29
:101A0000BB27AA2762177307840738F09F5F5F4FD1
:101A1000220F331F441FAA1FA9F333D00E2E3AF012
:101A2000E0E830D091505040E695001CCAF729D02C
:101A3000FE2F27D0660F771F881FBB1F261737077B
:101A40004807AB07B0E809F0BB0B802DBF01FF27AB
:101A500093585F4F2AF09E3F510568F061C0ABC0BC
:101A60005F3FECF3983EDCF3869577956795B795E5
:101A7000F7959F5FC9F7880F911D9695879597F900
:101A80000895E1E0660F771F881FBB1F6217730779
:101A90008407BA0720F0621B730B840BBA0BEE1F8E
:101AA00088F7E0950895E89409C097FB3EF4909577
:101AB0008095709561957F4F8F4F9F4F9923A9F027
:101AC000F92F96E9BB279395F695879577956795B6
:101AD000B795F111F8CFFAF4BB0F11F460FF1BC0FA
:101AE0006F5F7F4F8F4F9F4F16C0882311F096E98D
:101AF00011C0772321F09EE8872F762F05C066233B
:101B000071F096E8862F70E060E02AF09A95660FF3
:101B1000771F881FDAF7880F9695879597F90895AC
:101B200097F99F6780E870E060E008959FEF80EC90
:101B3000089500240A941616170618060906089533
:101B400000240A9412161306140605060895092E99
:101B50000394000C11F4882352F0BB0F40F4BF2B08
:101B600011F460FF04C06F5F7F4F8F4F9F4F089548
:101B700057FD9058440F551F59F05F3F71F047953E
:101B8000880F97FB991F61F09F3F79F08795089523
:101B9000121613061406551FF2CF4695F1DF08C042
:101BA000161617061806991FF1CF8695710561055F
:101BB00008940895E894BB2766277727CB0197F907
:101BC0000895EF920F931F93CF93DF93E80147FFA0
:101BD00002C034E101C034E0E42FFF27E7FDF095B7
:101BE000F7FF03C0F195E195F109E32E022F2E2FA7
:101BF000AE010E94520ECE01DF91CF911F910F9145
:101C0000EF900895FB01DC018D9101908019011086
:101C1000D9F3990B0895BB274A3031F4992322F464
:101C2000BDE2909581959F4F0C94390EBB27FA0128
:101C3000A62F6217710581059105330B30FB66F005
:101C4000AA27660F771F881F991FAA1FA21710F0D7
:101C5000A21B63953850A9F7A05DAA3308F0A95DCF
:101C6000A19336F7B111B1931082CA010C94A81058
:101C7000BB27FB015527AA27880F991FAA1FA41766
:101C800010F0A41B83955051B9F7A05DAA3308F05A
:101C9000A95DA193009779F7B111B1931192CB018E
:101CA0000C94A8106F927F929F92AF92BF92CF92A6
:101CB000DF92EF92FF920F931F93CF93DF93CDB7F5
:101CC000DEB729970FB6F894DEBF0FBECDBF6A010D
:101CD000B22E102F0C3320F4FF24F394F00E02C028
:101CE0004CE3F42E0F2D27E0AE014F5F5F4F0E94B3
:101CF000D00F7981272F2970213031F0E1FC06C007
:101D0000E0FC06C060E005C06DE203C06BE201C00C
:101D100060E2AE2DA07173FF36C0662311F084E03F
:101D200001C083E08B1510F4B81A01C0B12CA111C9
:101D30000BC0F6018B2D90E2882319F0919381500E
:101D4000FBCFCB0CD11CB12C662331F0F6016083A4
:101D500096012F5F3F4F6901C6010396E2FE05C061
:101D60002EE4F601208331E404C02EE6F601208340
:101D700031E631832283FC012B2D30E22223F1F165
:101D800031932150FBCF72FF40C0662311F084E0F5
:101D900001C083E08B1510F4B81A01C0B12CA11159
:101DA0000BC0F6018B2D90E2882319F0919381509E
:101DB000FBCFCB0CD11CB12C662331F0F601608334
:101DC00096012F5F3F4F6901C6010396E2FE07C0EF
:101DD00029E4F60120832EE4218326E406C029E6C7
:101DE000F60120832EE6218326E62283FC012B2D9B
:101DF00030E2222319F031932150FBCFFC01EB0D8F
:101E0000F11D10828EEF9FEFB7C0B1E0611101C0EC
:101E1000B0E04B2F50E01816190624F49C012F5FF8
:101E20003F4F02C021E030E0240F351F112329F07D
:101E3000412F50E04F5F5F4F02C040E050E0420F43
:101E4000531F2B2D30E04217530714F4B41A01C06E
:101E5000B12C2E2D287159F4F6012B2D30E22223BE
:101E600019F031932150FBCFCB0CD11CB12CBB23EB
:101E700031F0F601608396012F5F3F4F6901A11198
:101E80000BC0F6012B2D30E3222319F031932150A2
:101E9000FBCFCB0CD11CB12CF80E0A81372F30713F
:101EA000A32E74FF03C0013309F4FA941F142CF419
:101EB0002F2D293018F028E001C021E0682F392F9C
:101EC00097FF02C060E030E0462F532F612C712C49
:101ED0003EE2932EBC01621B71099B01DC01A41B35
:101EE000B50BE1E0F0E0EC0FFD1FAE0FBF1FE12EE0
:101EF000F12CF194E194F1084F3FFFEF5F0731F4CB
:101F0000F6019082B6016F5F7F4F6B0184179507D2
:101F10004CF02417350734F4BD01660D771DFB0125
:101F2000118101C010E341505109FFEF6F1A7F0A80
:101F3000B6016F5F7F4F4E155F0524F0F6011083E9
:101F40006B01DACF4817590739F4063320F405330B
:101F500019F4A11001C011E3F6011083FB018B2DD0
:101F600090E2882319F091938150FBCFFB01EB0D98
:101F7000F11D108280E090E029960FB6F894DEBF44
:101F80000FBECDBFDF91CF911F910F91FF90EF90CA
:101F9000DF90CF90BF90AF909F907F906F9008950B
:101FA000283008F027E03327DA01990F311D87FD2B
:101FB000916000966105710539F432602E5F3D93A2
:101FC00030E32A95E1F708959F3F30F0803871059E
:101FD000610509F03C5F3C5F3D93913008F08068FB
:101FE000911DDF93CF931F930F93FF92EF92192FC1
:101FF000987F9695E92F96959695E90FFF27E05FD4
:10200000FD4F99273327EE24FF24A701E701059010
:102010000894079428F4360FE71EF81E491F511D37
:10202000660F771F881F991F0694A1F705900794E4
:1020300028F4E70EF81E491F561FC11D770F881F91
:10204000991F661F0694A1F70590079428F4F80ECF
:10205000491F561FC71FD11D880F991F661F771F65
:102060000694A1F70590079420F4490F561FC71F47
:10207000D81F990F661F771F881F0694A9F78491B0
:102080001095177041F0D695C79557954795F794D9
:10209000E7941A95C1F7E6EBF1E068941590159175
:1020A00035916591959105907FE27395E118F10A5C
:1020B000430B560BC90BD009C0F7E10CF11E431FAF
:1020C000561FC91FD01D7EF4703311F48A95E6CFD8
:1020D000E894015030F0080F0AF40027021708F4C2
:1020E000202F2395022F7A3328F079E37D932A95C8
:1020F000E9F710C07D932A9589F606949795679520
:10210000379517951794E118F10A430B560BC90B35
:10211000D00998F023957E9173957A3308F070E397
:102120007C932013B8F77E9170617D9330F0839596
:1021300071E37D9370E32A95E1F71124EF90FF900E
:102140000F911F91CF91DF91992787FD9095089569
:10215000DC01FC01672F71917723E1F7329704C00E
:102160007C916D9370836291AE17BF07C8F3089599
:04217000F894FFCF11
:1021740020BF02000A404002024040404014544C38
:102184003A333A002020004C3A313A005643430097
:10219400312E315600322E35365600455854003112
:0421A4002E390000D0
:00000001FF
