:100000000C945B000C94D6000C9467010C94C20015
:100010000C9478000C9478000C947A000C9478007E
:100020000C9478000C94CC000C9478000C947C0216
:100030000C9478000C9478000C9478000C94780060
:100040000C9478000C9478000C9478000C94780050
:100050000C94780021524553554D450A00215041DA
:100060004E49430A002153484F52544355540A0005
:1000700021524143452053544152540A0021434FD9
:10008000554E54444F574E0A00215241434520508B
:100090005245504152450A00425553590A004F4BB0
:1000A0000A0046726565536C6F7420426C61636B25
:1000B000626F7820760011241FBECFE5D4E0DEBF4A
:1000C000CDBF10E0A0E6B0E0E0EDFCE002C005909E
:1000D0000D92A438B107D9F720E0A4E8B0E001C040
:1000E0001D92AF3EB207E1F70E9489050C946606A7
:1000F0000C9400001F920F920FB60F9211248F9351
:100100009F93AF93BF9380918D008F3F91F1823089
:10011000E9F4809186009091870001969093870082
:10012000809386008091860090918700883C91059D
:1001300068F08091840090918500019690938500ED
:100140008093840010928700109286008091C200F4
:100150009091C300A091C400B091C5000196A11D6B
:10016000B11D8093C2009093C300A093C400B093CC
:10017000C500BF91AF919F918F910F900FBE0F90CF
:100180001F9018951F920F920FB60F9211240F9087
:100190000FBE0F901F9018951F920F920FB60F92DF
:1001A00011240F900FBE0F901F9018951F920F9261
:1001B0000FB60F9211242F933F934F935F936F933A
:1001C0007F938F939F93AF93BF93EF93FF938BB7DF
:1001D0008F7B8BBF80918D00823029F58FEF8093CC
:1001E0008D008091C2009091C3009093D2008093C3
:1001F000D1008EE70E94CB0380E30E94CB038AE309
:100200000E94CB038091D1009091D20040E16CE933
:1002100070E00E940F068CE990E00E94CF038AE014
:100220000E94CB0343C081E08093A60062E00E945D
:100230005B048091D6009091D700A091D800B09136
:10024000D900892B8A2B8B2B09F18091C2009091C8
:10025000C300A091C400B091C5004091D600509158
:10026000D7006091D8007091D900841B950BA60B24
:10027000B70B8093DA009093DB00A093DC00B0937F
:10028000DD008091D5008F5F8093D5008091C20002
:100290009091C300A091C400B091C5008093D60096
:1002A0009093D700A093D800B093D900FF91EF911D
:1002B000BF91AF919F918F917F916F915F914F917E
:1002C0003F912F910F900FBE0F901F9018951F9286
:1002D0000F920FB60F9211242F933F934F935F937A
:1002E0006F937F938F939F93AF93BF93EF93FF93FE
:1002F0008BB78F778BBF80918D00823029F58FEF80
:1003000080938D008091C2009091C3009093E30090
:100310008093E2008EE70E94CB0381E30E94CB032F
:100320008AE30E94CB038091E2009091E30040E1D8
:100330006CE970E00E940F068CE990E00E94CF0308
:100340008AE00E94CB0344C081E08093AE0062E06B
:1003500082E00E945B048091E7009091E800A09108
:10036000E900B091EA00892B8A2B8B2B09F180914F
:10037000C2009091C300A091C400B091C50040910B
:10038000E7005091E8006091E9007091EA00841B59
:10039000950BA60BB70B8093EB009093EC00A0930A
:1003A000ED00B093EE008091E6008F5F8093E60051
:1003B0008091C2009091C300A091C400B091C5008B
:1003C0008093E7009093E800A093E900B093EA00DF
:1003D000FF91EF91BF91AF919F918F917F916F911D
:1003E0005F914F913F912F910F900FBE0F901F90F3
:1003F00018951092D500EEECF0E08081807F80832C
:100400001092D6001092D7001092D8001092D90006
:100410001092DA001092DB001092DC001092DD00E6
:100420001092E600EEEDF0E08181807F81831092F2
:10043000E7001092E8001092E9001092EA00109292
:10044000EB001092EC001092ED001092EE00109272
:10045000C2001092C3001092C4001092C50008950B
:1004600080918D0081111CC081E080938D000E94DD
:10047000F90161E081E00E945B0461E082E00E949A
:100480005B0461E083E00E945B0461E084E00E9421
:100490005B0461E085E00E945B0489E890E029C08C
:1004A000813049F51092C2001092C3001092C4002E
:1004B0001092C50085E080939B008AE080939A00AB
:1004C00082E080938D0060E081E00E945B0460E048
:1004D00082E00E945B0460E083E00E945B0460E0D5
:1004E00084E00E945B0460E085E00E945B048DE78D
:1004F00090E00C94D90308951F920F920FB60F92BB
:1005000011242F933F934F935F936F937F938F9318
:100510009F93AF93BF93EF93FF933CB120918E00D5
:100520002B3051F1822F90E03A3049F5FC01E15730
:10053000FF4F108280918F00833219F08B3241F08F
:100540001BC08EE990E00E94D9030E94300214C0C3
:100550008EE990E00E94D90380918D008F3F31F0A9
:100560008FEF80938D008DE590E004C010928D0098
:1005700084E590E00E94D90310928E0007C02F5F9F
:1005800020938E00FC01E157FF4F3083FF91EF91E4
:10059000BF91AF919F918F917F916F915F914F919B
:1005A0003F912F910F900FBE0F901F901895809143
:1005B0009A00882311F0815006C080919B008150E1
:1005C00080939B008AE080939A0080919B00823008
:1005D000A1F028F48823C1F0813091F0089584308F
:1005E00031F040F08530E9F461E081E00BC061E07A
:1005F00082E008C061E083E005C061E084E002C001
:1006000061E085E00C945B041092C2001092C3007C
:100610001092C4001092C5000E94AE0483E0809343
:100620008D00089583E690E00E94CF038091D5006D
:1006300040E16CE970E090E00E940F068CE990E0E8
:100640000E94CF038AE30E94CB0381E30E94CB0385
:100650008AE30E94CB036091DA007091DB00809105
:10066000DC009091DD0020E14CE950E00E941A0688
:100670008CE990E00E94CF038AE30E94CB03609153
:10068000C2007091C3008091C4009091C50020E128
:100690004CE950E00E941A068CE990E00E94CF03DA
:1006A0008AE00C94CB0388E690E00E94CF0380910F
:1006B000E60040E16CE970E090E00E940F068CE9F2
:1006C00090E00E94CF038AE30E94CB0382E30E9462
:1006D000CB038AE30E94CB036091EB007091EC00A6
:1006E0008091ED009091EE0020E14CE950E00E94F5
:1006F0001A068CE990E00E94CF038AE30E94CB03A4
:100700006091C2007091C3008091C4009091C500B7
:1007100020E14CE950E00E941A068CE990E00E942A
:10072000CF038AE00C94CB038091C2009091C30068
:10073000A091C400B091C5004091D6005091D7005F
:100740006091D8007091D90084529A4FAF4FBF4F3B
:10075000481759076A077B0718F42BB720642BBF8B
:100760004091E7005091E8006091E9007091EA0043
:10077000481759076A077B0718F48BB780688BBF47
:10078000089510BC80E189B9599A88E98AB986E848
:1007900080BD789408955D9BFECF8CB90895FC01CF
:1007A0002191CF01222321F05D9BFECF2CB9F7CF01
:1007B0000895FC012491222329F05D9BFECF2CB9E2
:1007C0000196F7CF089590EC90936200805487B91A
:1007D000369A3699FECF84B195B1089586B187686F
:1007E00086B90895CF93DF93EC016DE670E00E9427
:1007F0000606892B11F480E408C061E770E0CE01A1
:100800000E940606892B21F480E88093620012C0C2
:1008100066E770E0CE010E940606892B11F480EC99
:10082000F4CF6CE770E0CE010E940606892B61F4DC
:10083000109262008091620087B9369A3699FECF95
:1008400084B195B181E001C080E0DF91CF9108953E
:10085000CF92DF92FF920F931F93CF93DF931F925C
:10086000CDB7DEB7F12CC12CD12C082F10E0F61635
:1008700049F0C80169830E94E303C80ED91EF394AE
:100880006981F5CF6F2D70E0C6010E94F205CB01A2
:100890000F90DF91CF911F910F91FF90DF90CF903C
:1008A00008952FE788E391E0215080409040E1F7E0
:1008B00000C000000895833039F128F4813041F000
:1008C000823099F00895843061F18530C1F1089546
:1008D000613031F018F0623029F00895DC98089505
:1008E000DC9A08958BB390E10CC0613031F018F0C0
:1008F000623029F00895DD980895DD9A08958BB34C
:1009000090E289278BBB0895613031F018F0623096
:1009100029F00895AF980895AF9A089585B3805847
:100920001BC0613031F018F0623029F00895AA98A8
:100930000895AA9A089595B3982795BB08956130B4
:1009400031F018F0623029F00895AB980895AB9A11
:10095000089585B398E0892785BB0895DC98DD98D4
:10096000AF98AA98AB9808951ABA1BBA17BA18BAD2
:1009700014BA15BA11BA12BA0E94C1030E94EE034A
:1009800010BED49AD59AA79AA29AA39AC09AC19A4D
:100990009298939884B3836084BBDC9A2FE788E3B2
:1009A00091E0215080409040E1F700C00000DD9AC6
:1009B0002FE788E391E0215080409040E1F700C0AC
:1009C0000000AF9A2FE788E391E0215080409040EB
:1009D000E1F700C00000AA9A2FE788E391E02150D8
:1009E00080409040E1F700C00000AB9A2FE788E319
:1009F00091E0215080409040E1F700C00000DC9879
:100A00002FE788E391E0215080409040E1F700C05B
:100A10000000DD982FE788E391E02150804090406E
:100A2000E1F700C00000AF982FE788E391E0215084
:100A300080409040E1F700C00000AA982FE788E3CB
:100A400091E0215080409040E1F700C00000AB9859
:100A50008FE085BF80EC8BBF8AE08EBD86EF91E092
:100A60009BBD8ABD89B7806189BF82EA90E00E9400
:100A7000D90380E890E00E94CF038AE00C94CB0376
:100A80000E94AE048BB390E189278BBB2FE788E3EC
:100A900091E0215080409040E1F700C000008BB30E
:100AA00090E189278BBB8BB390E289278BBB2FE723
:100AB00088E391E0215080409040E1F700C00000C1
:100AC0008BB390E289278BBB85B3805885BB2FE71A
:100AD00088E391E0215080409040E1F700C00000A1
:100AE00085B3805885BB85B394E0892785BB2FE704
:100AF00088E391E0215080409040E1F700C0000081
:100B000085B394E0892785BB85B398E0892785BBA9
:100B1000089581E08093AD000E94B4040E94F90121
:100B200061E083E00E945B040E94940380918D0049
:100B30008F3F19F40E944005F9CF8091B4008823BB
:100B400059F08091A4009091A50042E06CE970E01A
:100B50000E940F061092B40086B3827080936100E9
:100B600090916000981741F0811102C00E943002FC
:100B7000809161008093600080918D00833051F4FA
:100B800010928D0080E790E00E94D90385E88A9555
:100B9000F1F700008091840090918500892B51F03D
:100BA00080918D00823031F4109285001092840083
:100BB0000E94D7028091A600813041F40E94120366
:100BC0001092A60062E081E00E945B048091AE007A
:100BD000813009F0A9CF0E9453031092AE0062E069
:100BE00082E0A0CFAA1BBB1B51E107C0AA1FBB1FFD
:100BF000A617B70710F0A61BB70B881F991F5A95A9
:100C0000A9F780959095BC01CD010895FB01DC0109
:100C10008D91019080190110D9F3990B0895BB278C
:100C20004A3031F4992322F4BDE2909581959F4F8B
:100C30000C943D06BB27FA01A62F621771058105AA
:100C40009105330B30FB66F0AA27660F771F881FCC
:100C5000991FAA1FA21710F0A21B63953850A9F77D
:100C6000A05DAA3308F0A95DA19336F7B111B19345
:100C70001082CA010C945606BB27FB015527AA27F0
:100C8000880F991FAA1FA41710F0A41B8395505119
:100C9000B9F7A05DAA3308F0A95DA193009779F791
:100CA000B111B1931192CB010C945606DC01FC01F9
:100CB000672F71917723E1F7329704C07C916D9390
:100CC00070836291AE17BF07C8F30895F894FFCF01
:100CD0000202404C3A333A004C3A313A0056434310
:100CE00000312E315600322E35365600455854000C
:040CF000312E380069
:00000001FF
