:100000000C945B000C949A050C940B060C947904E8
:100010000C9478000C9478000C9436040C947800BE
:100020000C9478000C943D050C9478000C942907EE
:100030000C9478000C9478000C9478000C94780060
:100040000C9478000C9478000C947C060C94780046
:100050000C94780021524553554D450A00215041DA
:100060004E49430A002153484F52544355540A0005
:1000700021524143452053544152540A0021434FD9
:10008000554E54444F574E0A00215241434520508B
:100090005245504152450A00425553590A004F4BB0
:1000A0000A0046726565536C6F7420426C61636B25
:1000B000626F7820760011241FBECFE5D4E0DEBF4A
:1000C000CDBF10E0A0E6B0E0E4EAFEE102C005909A
:1000D0000D92AA39B107D9F711E0AAE9B0E001C041
:1000E0001D92A534B107E1F70E94880D0C94500FC2
:1000F0000C940000CF92DF92FF920F931F93CF9347
:10010000DF931F92CDB7DEB740919A0050919B00CC
:100110009A013695279527703327F22E6A0194E0CD
:10012000D694C7949A95E1F78FE0C822DD24052F75
:1001300011270F701127452F42954770443009F061
:1001400047C09C2D9530B1F481E1829FF001839FDF
:10015000F00D1124DF01AE51BF4F9C9192609C9332
:100160008091BF0081FF34C0E152FF4F90859F5FB7
:1001700090872EC09630F9F49091E2009D7F909385
:10018000E2009091F3009D7F9093F3009091040121
:100190009D7F90930401909115019D7F909315018F
:1001A000909126019D7F90932601909137019D7F2C
:1001B000909337010DC0973059F481E1829FF0018F
:1001C000839FF00D1124EE51FF4F90819D7F90830E
:1001D00084E690E049830E943C0B8F2D805D0E9455
:1001E000380B8AE30E94380B4981842F805D0E947E
:1001F000380B8AE30E94380B40E150E060EA70E07F
:10020000C8010E94D00E80EA90E00E943C0B8AE375
:100210000E94380B40E150E060EA70E0C6010E94A5
:10022000D00E80EA90E00E943C0B8AE30E94380BDB
:100230006091D4007091D5008091D6009091D70044
:1002400020E130E040EA50E00E94F90E80EA90E0C0
:100250000E943C0B8AE00F90DF91CF911F910F918C
:10026000FF90DF90CF900C94380B2091C20030911A
:10027000C300232B49F49093C3008093C200609382
:10028000BE0021E030E002C020E030E0C901089566
:100290001F93CF93DF93182F81E1189FE001112462
:1002A000C152DF4F2C813D81232B19F52091D400C1
:1002B0003091D5003D832C838EE70E94380B812F2F
:1002C000805D0E94380B8AE30E94380B8C819D81EF
:1002D00040E150E060EA70E00E94D00E80EA90E0D9
:1002E0000E943C0B8AE00E94380B88E893E19F83D0
:1002F0008E83DF91CF911F910895AF92BF92DF92CD
:10030000EF92FF920F931F93CF93DF931F92CDB77E
:10031000DEB7D82E9E9924C024E082130FC080E05F
:1003200090E00E944F0B68E170E00E94810E5B013B
:100330008FE0A822BB2496B39071EEC095E089139C
:10034000E6C081E090E00E944F0B68E170E00E94FF
:10035000810E5B01EFE0AE22BB2496B39072DCC04D
:1003600080919F00D11010C0813009F4C6C180E097
:1003700090E00E944F0B68E170E00E94810E5B01EB
:10038000FFE0AF22BB24BBC121E0D21210C08130FC
:1003900009F4B8C181E090E00E944F0B68E170E081
:1003A0000E94810E5B018FE0A822BB242BC092E04B
:1003B000D91210C0813009F4A8C182E090E00E94F7
:1003C0004F0B68E170E00E94810E5B01EFE0AE220E
:1003D000BB241EC0F3E0DF1210C0813009F498C1C5
:1003E00083E090E00E944F0B68E170E00E94810E74
:1003F0005B012FE0A222BB2411C091E0A12CB12C03
:10040000D91203C096B3907211C0E2E0DE1203C0AD
:1004100096B390740BC0F3E0DF1203C096B39078EC
:1004200005C023E02D1508F450C09FEF0D2D10E0FE
:1004300081E1D89EF0011124E152FF4F20812295E5
:100440002F7030E0A216B30628F4A080A294BFE07B
:10045000AB22B12C80919F00823051F4A114B104E1
:1004600039F08D2D99830E944801A12CB12C9981DE
:1004700081E1809FF001819FF00D1124E152FF4F37
:1004800020812F7030E02A153B0520F480818F7089
:10049000A82EB12C81E1809FF001819FF00D1124E5
:1004A000DF01AE51BF4F8C9181FF36C0EF51FF4F3E
:1004B000208122952F7030E02A153B0568F5A08039
:1004C000A294AFE0AA22B12C27C081110FC091E104
:1004D000D99EF0011124E152FF4F808182958F70E7
:1004E00029F0A080A294FFE0AF22B12C21E1D29E9E
:1004F000F0011124E152FF4F20812F7030E02A15C6
:100500003B0548F480818F70A82EB12C04C09FEF6A
:10051000A12CB12C01C09FEF0D2D10E081E1D89EE0
:10052000F0011124EF51FF4F2A2D2F708081807F21
:10053000822B808381E0911101C080E091E1909F46
:10054000F001919FF00D1124EE51FF4F908180FB3F
:1005500093F990837501EE0CFF1C882311F06894C9
:10056000E5F891E0D916B1F0D91638F0E2E0DE16E0
:10057000F1F0F3E0DF1236C027C090919F0088238E
:1005800021F091112FC060E003C091112BC061E0F8
:1005900081E026C090919F00882321F0911122C014
:1005A00060E003C091111EC061E082E019C090912B
:1005B0009F00882321F0911115C060E003C09111C4
:1005C00011C061E084E00CC090919F00882321F06D
:1005D000911108C060E003C0911104C061E085E0A2
:1005E0000E94C60BC80176E0880F991F7A95E1F743
:1005F0008E299F2946B321E1209FF001219FF00D14
:100600001124E152FF4F2681378140FD04C0232B86
:1006100011F0926002C08160926069E00E94350131
:10062000892B09F468C08091BF0080FF62C081E11E
:10063000809FF001819FF00D1124DF01AE51BF4F6B
:100640008C9182FD56C0A114B104A1F18091620089
:10065000882381F1E052FF4F208122952F70609115
:1006600062002A9DC0012B9D900D1124019670E01F
:100670000E94950ECB01009711F481E090E021E1FA
:10068000209FF001219FF00D1124E152FF4F2681A0
:100690003781232B71F1268137818217930738F434
:1006A00026813781281B390B3783268322C0178286
:1006B00016821FC081E1809FF001819FF00D1124FF
:1006C000DF01AE51BF4F8C9181FF13C0E152FF4F4C
:1006D00086819781C29697838683868197818131AF
:1006E000974238F080E197E2978386838C918D7FE3
:1006F0008C9381E010C080E00EC0A12CB12C96B389
:10070000907194CEA12CB12C7DCEA12CB12C80CE99
:10071000A12CB12C83CE0F90DF91CF911F910F911F
:10072000FF90EF90DF90BF90AF900895282F30E0BA
:10073000220F331F2A7A86958575822B94E0899F34
:10074000900111242C7C869586958373822B82954B
:1007500008950F931F93CF93DF931F92CDB7DEB70A
:10076000182F842F69830E949603082F812F0E94DF
:100770009603182F6981862F0E94960390E090615E
:1007800020E1029FA0011124842B952B1295169530
:1007900017706CE0812B0F90DF91CF911F910F911B
:1007A0000C943501CF93DF939E9913C080E090E0C5
:1007B0000E944F0B489718F4C0E8D0E002C0C5E88B
:1007C000D0E081E090E00E944F0B489708F43EC0D3
:1007D0003CC08091DF00807F49F480E090E00E947F
:1007E0004F0B489718F4C0E8D0E002C0C1ECD0E04D
:1007F0008091F000807F11F0C16A06C081E090E036
:100800000E944F0B4897C0F780910101807F11F043
:10081000C16906C082E090E00E944F0B4897C0F784
:1008200080911201807F11F0C96806C083E090E0DA
:100830000E944F0B4897C0F780912301807F09F0F9
:10084000C56880913401807F09F0C36867E0CE01FC
:10085000DF91CF910C943501B09903C080EE93E005
:1008600002C081EE93E069E00C9435011F920F9273
:100870000FB60F9211248F939F93AF93BF938091E4
:100880009F008F3F69F180919E008E3039F48091F6
:10089000C7008093BD0010929E0005C080919E000D
:1008A0008F5F80939E0086EF91E09093DE008093AF
:1008B000DD009093BC008093BB008091D4009091A8
:1008C000D500A091D600B091D7000196A11DB11D11
:1008D0008093D4009093D500A093D600B093D70016
:1008E000BF91AF919F918F910F900FBE0F901F906E
:1008F00018951F920F920FB60F9211242F933F93CA
:100900004F935F936F937F938F939F93AF93BF9317
:10091000EF93FF9380919F008F3F09F49DC08091DA
:10092000BD008E3F08F461C08091BD008F3F09F487
:1009300093C0949A8FEF8093BD008091C2009091F4
:10094000C3009093BA008093B9001092C300109234
:10095000C2008091BE008093C70085E082BF89E01D
:100960008093D2001092B7001092B6001092C60089
:1009700089B7816089BF89B78F7789BF10929B0043
:1009800010929A0084E605C081509DE09A95F1F797
:100990000000859B03C08111F7CF23C0882309F194
:1009A0008DE08A95F1F7000020E180919A00909106
:1009B0009B009695879590939B0080939A008599CC
:1009C00009C080919A0090919B00906890939B0041
:1009D00080939A0090E89A95F1F7215031F70E94A0
:1009E0007A0089B7806889BF37C08091BD008F7752
:1009F00021E030E002C0220F331F8A95E2F7809198
:100A0000BD00992787FD9095990F880B982F4091ED
:100A1000B9005091BA008427952782239323892B0C
:100A200011F0949A01C094988091BD0087FD04C094
:100A30008091BD0080680EC08091BD008F7780934B
:100A4000BD008091BD00811102C08EEF03C0809176
:100A5000BD0081508093BD00FF91EF91BF91AF9198
:100A60009F918F917F916F915F914F913F912F91C6
:100A70000F900FBE0F901F9018951F920F920FB6F8
:100A80000F9211248F939F9380919F008F3F09F4C1
:100A90004AC085E082BF8091D20081113FC0949806
:100AA0008AE48A95F1F700C0CF9B11C08091B6000F
:100AB0009091B700892B21F489B78E7F89BF1FC021
:100AC0008091B6009091B700880F991F0FC0809158
:100AD000B6009091B700880F991F9093B70080934C
:100AE000B6008091B6009091B70081609093B700F6
:100AF0008093B6008091C6008F5F8093C60080917E
:100B0000C6008F3029F4949A89B78E7F89BF0BC0B5
:100B100085E38A95F1F70000949A05C08091D20090
:100B200081508093D2009F918F910F900FBE0F90B4
:100B30001F9018951F920F920FB60F9211242F93AA
:100B40003F938F939F938CB59DB59093DB008093DB
:100B5000DA002091DD003091DE008091DA00909182
:100B6000DB002817390708F045C08091B8008111D3
:100B70000BC08091DA009091DB002091DD00309174
:100B8000DE00821B930B02C080E090E09C012753A3
:100B900031092331310518F421E02093B8009C017C
:100BA000275731092331310518F422E02093B8008A
:100BB0009C012B5B31092331310518F423E020938C
:100BC000B8009C01275F31092331310518F424E076
:100BD0002093B8009C01275331402331310518F48C
:100BE00025E02093B80087579140439718F486E09A
:100BF0008093B8008091DA009091DB009093DE0042
:100C00008093DD009F918F913F912F910F900FBEA8
:100C10000F901F9018951F920F920FB60F921124EC
:100C20002F933F938F939F938CB59DB59093C50061
:100C30008093C4002091BB003091BC008091C4001F
:100C40009091C5002817390708F045C08091C00071
:100C500081110BC08091C4009091C5002091BB0010
:100C60003091BC00821B930B02C080E090E09C019D
:100C7000275331092331310518F421E02093C000B6
:100C80009C01275731092331310518F422E02093C4
:100C9000C0009C012B5B31092331310518F423E09E
:100CA0002093C0009C01275F31092331310518F4DE
:100CB00024E02093C0009C012753314023313105AB
:100CC00018F425E02093C00087579140439718F40B
:100CD00086E08093C0008091C4009091C5009093FD
:100CE000BC008093BB009F918F913F912F910F90FB
:100CF0000FBE0F901F9018951F920F920FB60F9274
:100D000011240F900FBE0F901F90189580E090E077
:100D100071E140E157E2789F9001799F300D1124F5
:100D2000D901A152BF4F6C916F606C93F901EE51E4
:100D3000FF4F60816E7F608317965C934E9316978A
:100D400015961C921E92149718961C92D901A052C7
:100D5000BF4F6C91607F6C936C91606F6C936081FE
:100D60006D7F6083D901AF51BF4F2C912F70206AE6
:100D70002C932081843010F42B7F01C024602083C9
:100D8000789FF001799FF00D1124E152FF4F1186F9
:100D9000128613861486158616861786108A019683
:100DA0008630910509F0B7CF1092D4001092D5008B
:100DB0001092D6001092D700089580919F00811163
:100DC0001CC081E080939F000E94860661E081E064
:100DD0000E94C60B61E082E00E94C60B61E083E0E6
:100DE0000E94C60B61E084E00E94C60B61E085E0D2
:100DF0000E94C60B89E890E029C0813049F5109225
:100E0000D4001092D5001092D6001092D70085E041
:100E10008093A8008AE08093A90082E080939F00DD
:100E200060E081E00E94C60B60E082E00E94C60B99
:100E300060E083E00E94C60B60E084E00E94C60B85
:100E400060E085E00E94C60B8DE790E00C94450BB6
:100E500008951F920F920FB60F9211241F932F9394
:100E60003F934F935F936F937F938F939F93AF9332
:100E7000BF93CF93DF93EF93FF933CB12091AA00F0
:100E80002B3009F473C1822F90E0FC01E555FF4F30
:100E90003A3009F06EC110828091AB008C3409F4B5
:100EA0004EC090F4863409F47DC050F48A3209F4BF
:100EB000B8C08B3209F4D2C0833209F057C1C7C021
:100EC000893409F053C1DDC0833509F453C0883536
:100ED00009F4B3C0803509F049C180919D008111AA
:100EE00029C08091AE0080538093DC008091AC00DB
:100EF000982F90539093D9009091D9009A3018F080
:100F000087538093D9008091AD00982F9053909390
:100F1000D8009091D8009A3018F087538093D80069
:100F20008091D900843010F482E001C081E0809388
:100F30009D001DC088E990E00E94450B17C180917B
:100F4000AD00282F20532A3008F027508091AC00A4
:100F500090E0C0972F7031E1389FF001399FF00D7C
:100F60001124E152FF4F8081807F822B80838EE9A4
:100F700090E0E2CF8091AD00282F20532A3008F076
:100F800027508091AC0090E0C09731E1389FF0018C
:100F9000399FF00D1124E152FF4F2295207F80816F
:100FA0008F70E3CF8091AC0080539091BF0080FBA5
:100FB00090F99093BF008091AD008A33C1F680E331
:100FC0008093AB008093AC008093AD0088E690E006
:100FD0000E943C0B809162004AE050E060EA70E0C1
:100FE00090E00E94D00E80EA90E00E943C0B8EE3DD
:100FF0000E94380B8BEA90E00E94A90E8093620059
:10100000809162004AE050E060EA70E090E00E9467
:10101000D00E80EA90E00E943C0B80E20E94380BE8
:10102000A6CF9091AC009053990F990F8091BF007B
:101030008370892B8093BF009ACF8091AC0080533E
:101040009091BF0080FB91F99093BF0090CF8EE903
:1010500090E00E94450B0E94DD0688C08EE990E07A
:101060000E94450B80919F008F3F31F08FEF80935E
:101070009F008DE590E060CF10929F0084E590E0A6
:101080005BCF88E790E00E943C0B8AE30E94380B1C
:10109000C0E0D0E011E11C9FF0011D9FF00D112474
:1010A000E152FF4F80818F700E94380B2196C6302D
:1010B000D10589F78AE30E94380BC0E0D0E011E146
:1010C0001C9FF0011D9FF00D1124E152FF4F808104
:1010D00082958F700E94380B2196C630D10581F71A
:1010E0008AE30E94380BC0E0D0E011E11C9FF001C0
:1010F0001D9FF00D1124E152FF4F8681978140E141
:1011000050E060EA70E00E94D00E80EA90E00E9419
:10111000380B8CE20E94380B2196C630D10531F78E
:101120008AE30E94380BC0E0D0E011E11C9FF0017F
:101130001D9FF00D1124E152FF4F8481958140E104
:1011400050E060EA70E00E94D00E80EA90E00E94D9
:101150003C0B8CE20E94380B2196C630D10531F74A
:101160008AE30E94380B8AE00E94380B1092AA0092
:1011700004C030832F5F2093AA00FF91EF91DF918D
:10118000CF91BF91AF919F918F917F916F915F911F
:101190004F913F912F911F910F900FBE0F901F9075
:1011A00018958091A900882311F0815006C0809184
:1011B000A80081508093A8008AE08093A9008091C4
:1011C000A8008230A1F028F48823C1F0813039F5DD
:1011D00011C0843031F040F0853009F561E081E0E4
:1011E0000BC061E082E008C061E083E005C061E01F
:1011F00084E002C061E085E00C94C60B1092D4003C
:101200001092D5001092D6001092D7000E941C0CAC
:1012100061E083E00E94C60B83E080939F00089505
:101220008F929F92AF92BF92CF92DF92EF92FF92F6
:10123000CF93C090D400D090D500E090D600F0902D
:10124000D7009091B8008091C100981709F4AAC006
:101250008091B8008093C100882309F4A3C08091D5
:10126000B80090E00197C1E1C89FF001C99FF00D5F
:101270001124E152FF4F81859285A385B4854601F3
:101280005701881A990AAA0ABB0A8DED881685E0CB
:101290009806A104B10408F485C08091B80090E0DC
:1012A0000197C89FF001C99FF00D1124E152FF4F33
:1012B00081859285A385B485892B8A2B8B2B09F494
:1012C00061C08091B80090E00197C89FF001C99F6C
:1012D000F00D1124E152FF4F85869686A786B08ACD
:1012E0008091B80090E00197C89FF001C99FF00D70
:1012F0001124E152FF4F80858F5F80878CE790E05B
:101300000E943C0B8091B80090E00197C89FF001CB
:10131000C99FF00D1124E152FF4F808540E150E05C
:1013200060EA70E090E00E94D00E80EA90E00E94B7
:101330003C0B8AE30E94380B8091C100805D0E94C3
:10134000380B8AE30E94380B20E130E040EA50E09D
:10135000C501B4010E94F90E80EA90E00E943C0BA6
:101360008AE30E94380B20E130E040EA50E0C701F8
:10137000B6010E94F90E80EA90E00E943C0B8AE0E0
:101380000E94380B8091B80090E0019721E1289FDE
:10139000F001299FF00D1124E152FF4FC186D28642
:1013A000E386F4861092B8009091C0008091D3003B
:1013B000981709F4AAC08091C0008093D3008823B5
:1013C00009F4A3C08091C00090E00197C1E1C89FDB
:1013D000F001C99FF00D1124E152FF4F81859285E4
:1013E000A385B48546015701881A990AAA0ABB0A3F
:1013F0008DED881685E09806A104B10408F485C037
:101400008091C00090E00197C89FF001C99FF00D46
:101410001124E152FF4F81859285A385B485892BE4
:101420008A2B8B2B09F461C08091C00090E001975A
:10143000C89FF001C99FF00D1124E152FF4F85862E
:101440009686A786B08A8091C00090E00197C89FD9
:10145000F001C99FF00D1124E152FF4F80858F5F8D
:10146000808781E890E00E943C0B8091C00090E072
:101470000197C89FF001C99FF00D1124E152FF4F61
:10148000808540E150E060EA70E090E00E94D00E7C
:1014900080EA90E00E943C0B8AE30E94380B809126
:1014A000D300805D0E94380B8AE30E94380B20E154
:1014B00030E040EA50E0C501B4010E94F90E80EA34
:1014C00090E00E943C0B8AE30E94380B20E130E060
:1014D00040EA50E0C701B6010E94F90E80EA90E0B0
:1014E0000E943C0B8AE00E94380B8091C00090E083
:1014F000019721E1289FF001299FF00D1124E1526D
:10150000FF4FC186D286E386F4861092C000CF9149
:10151000FF90EF90DF90CF90BF90AF909F908F9013
:101520000895FF920F931F93CF93DF93F82E0091AE
:10153000BF00802F8C7F09F48BC02F2D30E08430CA
:1015400009F04CC081E1829F8001839F100D11241E
:10155000E801C052DF4F98819F709A30B9F586E458
:101560000E94380B8AE30E94380B8F2D805D0E9409
:10157000380B8AE30E94380BF801E152FF4F868155
:10158000978140E150E060EA70E00E94D00E80EA6E
:1015900090E00E943C0B8AE30E94380B6091D400DB
:1015A0007091D5008091D6009091D70020E130E075
:1015B00040EA50E00E94F90E80EA90E00E943C0B65
:1015C0008AE00E94380B8881807F06C098819F5FE7
:1015D0009F708881807F892B88833AC00695069505
:1015E00010E0025011090217130791F58CE40E94D4
:1015F000380B8EE40E94380B8AE30E94380B81E19D
:10160000809FE001819FD00D1124FE01EF51FF4F1B
:10161000808140E150E060EA70E08F7090E00E94CD
:10162000D00E80EA90E00E943C0B8AE30E94380BC7
:10163000CE51DF4F888183FF03C088E50E94380BBD
:101640008AE0DF91CF911F910F91FF900C94380B9E
:10165000DF91CF911F910F91FF90089510BC80E111
:1016600089B9599A88E98AB986E880BD789408953D
:101670005D9BFECF8CB90895FC0103C05D9BFECF3E
:101680008CB981918111FACF089504C05D9BFECF82
:101690002CB90196FC0124912111F8CF089590EC0A
:1016A00090936300805487B9369A3699FECF24B15F
:1016B00035B1C901089586B1876886B90895CF9379
:1016C000DF93EC0166E870E00E94C70E009711F40A
:1016D00080E408C06AE870E0CE010E94C70E00975F
:1016E00021F480E88093630012C06FE870E0CE01BF
:1016F0000E94C70E009711F480ECF4CF65E970E00A
:10170000CE010E94C70E009761F410926300809191
:10171000630087B9369A3699FECF84B195B181E0DE
:1017200001C080E0DF91CF910895EF92FF920F9377
:101730001F93CF93DF931F92CDB7DEB7082F10E032
:10174000E12CF12C09C0802F90E069830E944F0B9F
:10175000E80EF91E1F5F69811613F5CF612FC701CF
:1017600070E00E94810ECB010F90DF91CF911F910D
:101770000F91FF90EF9008952FE788E391E02150BB
:1017800080409040E1F700C000000895833051F19F
:1017900030F4813051F0823009F04DC014C08430F3
:1017A00071F1853009F047C038C0613039F020F060
:1017B000623009F040C004C0DC980895DC9A0895B6
:1017C0008BB390E10CC0613031F018F0623099F5C4
:1017D00004C0DD980895DD9A08958BB390E28927BF
:1017E0008BBB0895613031F018F0623021F504C0F0
:1017F000AF980895AF9A089585B380581BC06130A3
:1018000031F018F06230B9F404C0AA980895AA9A89
:10181000089595B3982795BB0895613031F018F07D
:10182000623049F404C0AB980895AB9A089585B32B
:1018300098E0892785BB0895DC98DC98AC98AC9833
:10184000AC9808951ABA1BBA17BA18BA14BA15BACE
:1018500011BA12BA0E942E0B0E945B0B10BED49AD2
:10186000D59AA79AA29AA39A88B3806F88BBC09A88
:10187000C19ABA9A8C9A84B3836084BBDC9A2FE7AE
:1018800088E391E0215080409040E1F700C00000E3
:10189000DD9A2FE788E391E0215080409040E1F706
:1018A00000C00000AF9A2FE788E391E0215080400C
:1018B0009040E1F700C00000AA9A2FE788E391E08A
:1018C000215080409040E1F700C00000AB9A2FE724
:1018D00088E391E0215080409040E1F700C0000093
:1018E000DC982FE788E391E0215080409040E1F7B9
:1018F00000C00000DD982FE788E391E02150804090
:101900009040E1F700C00000AF982FE788E391E036
:10191000215080409040E1F700C00000AA982FE7D6
:1019200088E391E0215080409040E1F700C0000042
:10193000AB9882E083BF9AE095BD82E383BD89B70F
:10194000806889BF8FE085BF80EC8BBF9EBD86EF2E
:1019500091E09BBD8ABD89B7806189BF82EA90E032
:101960000E94450B88E790E00E943C0B8AE00C94B3
:10197000380B94980E941C0C8BB390E189278BBB89
:101980002FE738E381E0215030408040E1F700C08C
:1019900000008BB389278BBB8BB390E289278BBB6D
:1019A0002FE738E381E0215030408040E1F700C06C
:1019B00000008BB389278BBB85B3805885BB9FE71D
:1019C00028E331E0915020403040E1F700C00000B2
:1019D00085B3805885BB85B394E0892785BB8FE7A5
:1019E00028E331E0815020403040E1F700C00000A2
:1019F00085B3892785BB85B398E0892785BB089582
:101A00000F931F93CF93DF93CF997CC084E6CF9938
:101A100079C025E32A95F1F700008150C1F7CF99ED
:101A200071C08FEF80939F0094988FE99FE001979A
:101A3000F1F700C00000949885E690E00E94450B05
:101A4000DC9ADD9AAF98AA98AB98C0E1D0E214E096
:101A500008E050C08BB38C278BBB8BB38D278BBB1F
:101A600085B3812785BB85B3802785BB9FE728E3A6
:101A700081E0915020408040E1F700C0000085B334
:101A8000805885BB9FE728E381E09150204080404B
:101A9000E1F700C0000085B3805885BB9FE728E3CD
:101AA00081E0915020408040E1F700C0000085B304
:101AB000805885BB9FE728E381E09150204080401B
:101AC000E1F700C0000085B3805885BB86B3827003
:101AD0008093610090916000981761F0811106C0B9
:101AE00010929F0084E590E00E94450B8091610078
:101AF0008093600080919F008F3F09F4ABCF0E94DC
:101B00001C0CAF9A80E0DF91CF911F910F91089547
:101B100081E08093BF000E94220C0E94860661E053
:101B200083E00E94C60B949AC1E0D6E019E001E080
:101B300005C0C3E003C0C4E001C0CAE00E94000DBC
:101B40000E94100902C00E94B90C80919F008F3F33
:101B5000D1F38091C600882361F08091B600909106
:101B6000B70042E050E060EA70E00E94D00E1092B0
:101B7000C60086B3827080936100909160009817D0
:101B800041F0811102C00E94DD06809161008093C6
:101B9000600080919F008330A1F410929F0080E745
:101BA00090E00E94450BD093D9001093D80010927A
:101BB000DC0000939D00C29A85E88A95F1F7000049
:101BC000C298C53009F45AC070F4C23009F43FC05D
:101BD00020F4C13009F0B2CF18C0C330F1F1C430E5
:101BE00009F0ACCF40C0C83009F469C038F4C63041
:101BF00009F44FC0C73009F0A1CF56C0C93009F46D
:101C000069C0CA3009F09ACF6BC080919D008823CB
:101C100089F04091D8006091D9008091DC000E9449
:101C2000A903892B09F48ACF80919D00815080936C
:101C30009D0061C040E063E187E00E94A903892B19
:101C400009F059C07BCF0E94D108C2E077CF0E9433
:101C50002C04892B09F06DCFF8CF0E94D203892B79
:101C600009F069CF6BCF80E00E947D01882309F4E1
:101C700065CF80E00E94910AC5E060CF84E00E94B9
:101C80007D01882309F45ACF84E00E94910AC6E0BE
:101C900055CF81E00E947D01882309F44FCF81E078
:101CA0000E94910AC7E04ACF85E00E947D01882307
:101CB00009F444CF85E00E94910AC8E03FCF82E05A
:101CC0000E947D01882309F439CF82E00E94910AA5
:101CD000C9E034CF0E94D203892B09F02ECF2ECF3A
:101CE00083E00E947D01882309F428CF83E00E94CD
:101CF000910AC1E023CF80919F00823009F0A5CFE7
:101D0000A2CFAA1BBB1B51E107C0AA1FBB1FA6176E
:101D1000B70710F0A61BB70B881F991F5A95A9F794
:101D200080959095BC01CD01089597FB072E16F480
:101D3000009407D077FD09D00E94810E07FC05D0E2
:101D40003EF4909581959F4F0895709561957F4FD2
:101D50000895FC0188279927E89421912032E9F31E
:101D6000293010F02E30C8F32B3241F02D3239F4E7
:101D7000689404C00E94F10E820F911D219120539E
:101D80002A30C0F31EF4909581959F4F0895FB0172
:101D9000DC018D91019080190110D9F3990B089500
:101DA000FB019F01E8944230C4F04532B4F44A305C
:101DB00029F497FB1EF4909581959F4F642F772708
:101DC0000E94810E805D8A330CF0895D8193CB0186
:101DD0000097A1F716F45DE251931082C9010C94AB
:101DE0001E0F7AE0979F902D879F802D910D1124D3
:101DF0000895FA01CF93FF93EF932230CCF0253270
:101E0000BCF4C22F2C2F332744275527FF93EF9381
:101E10000E942E0FEF91FF91605D6A330CF0695DB7
:101E20006193B901CA01605070408040904051F701
:101E300010828F919F91CF910C941E0FDC01FC01B9
:101E4000672F71917723E1F7329704C07C916D93EE
:101E500070836291AE17BF07C8F30895A1E21A2EEE
:101E6000AA1BBB1BFD010DC0AA1FBB1FEE1FFF1F3E
:101E7000A217B307E407F50720F0A21BB30BE40B8E
:101E8000F50B661F771F881F991F1A9469F76095D5
:101E90007095809590959B01AC01BD01CF0108958F
:041EA000F894FFCFE4
:101EA4000202194052573A0044697669736F7243CB
:101EB40068616E67653A2000312E38004C3A333A37
:101EC400004C3A313A0056434300312E3156003229
:0A1ED4002E35365600455854000024
:00000001FF
