:100000002AC07EC0D2C196C041C0F3C13FC03EC02D
:1000100045C13CC03BC03BC039C038C037C036C00A
:1000200035C034C033C046726565736C6F7420543C
:100030007261636B537769746368202F2050697411
:100040006C616E652076312E340A005049543A4571
:100050005849540A000011241FBECFE5D4E0DEBF8A
:10006000CDBF10E0A0E6B0E0E0EEF6E002C0059003
:100070000D92A236B107D9F710E0A2E6B0E001C0B8
:100080001D92AF37B107E1F7F9D128C3B9CF1F925D
:100090000F920FB60F9211240F900FBE0F901F906A
:1000A00018958FE99FE00197F1F700C000000895CF
:1000B00090916000392F3F7020E02160306487709C
:1000C00090E0880F991F282B392B50E1659FB001D4
:1000D00011247727262B372B44B3426084B38D7FBE
:1000E00090E120FF02C044BB01C084BB3695279538
:1000F00052E85A95F1F700C0915099F784BB0895E2
:100100001F920F920FB60F9211248F938BB78F7B94
:100110008BBF109265001092640080E880936600A7
:1001200014BC89B7806889BF8F910F900FBE0F9064
:100130001F9018951F920F920FB60F9211242F93B4
:100140003F934F935F936F937F938F939F93AF935F
:10015000BF93EF93FF9380916600880F880B909177
:10016000660096FD02C090E001C09FEF829902C038
:100170004FEF01C040E0882309F471C08091660010
:100180008F778093660021E030E0941711F020E033
:1001900030E0842F90E082239323892B09F444C01C
:1001A000809166008F738093670089B78F7789BFCE
:1001B0008BB780648BBF809167008A3009F05DC087
:1001C0002091640030916500F6E036952795FA9508
:1001D000E1F7277033278091640090916500969530
:1001E0008795F901E758FF4F8F709081907F982B8A
:1001F00090838091640090916500B5E09695879515
:10020000BA95E1F7908180FB94F990838091630027
:10021000882399F18091620082132FC0609163005E
:1002200047DF1092630029C0809166008F5F809342
:1002300066008091640090916500880F991F9093EB
:10024000650080936400411118C080916400909112
:100250006500816090936500809364000EC080917A
:10026000660080688093660080916600442311F0E8
:10027000806401C08F7B80936600FF91EF91BF91F6
:10028000AF919F918F917F916F915F914F913F912E
:100290002F910F900FBE0F901F9018951F920F92E5
:1002A0000FB60F9211248F939F938FEF9FEF909330
:1002B0006C0080936B00909371008093700090931A
:1002C0007600809375009F918F910F900FBE0F90D5
:1002D0001F9018952CB53DB5482F50E095E0899FAB
:1002E000F0011124E659FF4F3483238321813281A9
:1002F000838194812817390708F04AC080818F7064
:1003000039F42381348181819281281B390B02C009
:1003100020E030E0C901C7974397E0F0C901875753
:1003200091094397D0F0C9018B5B91094397C0F0C5
:10033000C901875F91094397B0F0C9018753914084
:100340004397A0F0275731402331310590F486E0E0
:1003500090E011C081E090E00EC082E090E00BC020
:1003600083E090E008C084E090E005C085E090E084
:1003700002C080E090E095E0949FF001959FF00D21
:100380001124E659FF4F8F709081907F982B9083B6
:1003900085E0849FF001859FF00D1124E659FF4F01
:1003A000838194819283818308951F920F920FB667
:1003B0000F9211242F933F934F935F936F937F93EB
:1003C0008F939F93AF93BF93EF93FF9380E082DF70
:1003D000FF91EF91BF91AF919F918F917F916F911D
:1003E0005F914F913F912F910F900FBE0F901F90F3
:1003F00018951F920F920FB60F9211242F933F93CF
:100400004F935F936F937F938F939F93AF93BF931C
:10041000EF93FF9381E05EDFFF91EF91BF91AF918A
:100420009F918F917F916F915F914F913F912F910C
:100430000F900FBE0F901F90189510BC8CE089B9DB
:10044000599888E98AB986E880BD789408955D9BBB
:10045000FECF8CB90895FC0103C05D9BFECF8CB923
:1004600081918111FACF089504C05D9BFECF2CB914
:100470000196FC0124912111F8CF08958AE085BDF1
:1004800082E383BD82EC8EBD84EA89BF8FE085BFA5
:1004900080EC8BBFD2DF86E290E0E6DF7894B99AF9
:1004A000BA9AA198A99884B38C6084BBBD9AC59A66
:1004B000AB98AA9AC1E0D3E015E007E086E0F82EF9
:1004C00090916A009F7080916A0082958F70981752
:1004D00019F190916A009295907F80916A008F70D7
:1004E000892B80936A0080916A00807FA9F0C09375
:1004F000630080916A0082958F70815080936200C2
:1005000081E4A5DF81E4A3DF80916A0082958F708A
:10051000805D9DDF8AE09BDF80916A00807F809311
:100520006A0090916F009F7080916F0082958F702C
:10053000981709F46AC090916F009295907F80910E
:100540006F008F70892B80936F0080916F00807F88
:1005500009F442C0E0916F00E295EF70F0E0E858D6
:10056000FF4F808184FD38C0E0916F00E295EF700D
:10057000F0E0E858FF4F80818F7071F110936300B5
:1005800080916F0082958F70815080936200E0911E
:100590006F00E295EF70F0E0E858FF4F80818062D5
:1005A000808382E454DF83E452DF80916F00829580
:1005B0008F70805D4CDF8AE04ADFC29A8FE99FE04E
:1005C0000197F1F700C00000C2988FE99FE0019702
:1005D000F1F700C0000019C080916F00807FA9F082
:1005E000D093630080916F0082958F7081508093CB
:1005F000620082E42CDF82E42ADF80916F00829522
:100600008F70805D24DF8AE022DF80916F00807F21
:1006100080936F00859B19C080E090E0FC01E75853
:10062000FF4F208125FF0AC020812F7039F02081E3
:100630002F7D2083009363008093620001968630B3
:10064000910561F78BE490E00FDF909174009F704B
:100650008091740082958F70981769F19091740061
:100660009295907F809174008F70892B8093740095
:1006700080917400807FF9F0F092630080917400A3
:1006800082958F70815080936200E0917400E295B2
:10069000EF70F0E0E858FF4F80818F7D80838AE51E
:1006A000D6DE8AE5D4DE8091740082958F70805DFD
:1006B000CEDE8AE0CCDE80917400807F809374006F
:1006C000C59A80E090E0FC01E758FF4F208125FDAE
:1006D000C598019686309105B1F7F2CEF894FFCF18
:0206E0000F0009
:00000001FF
